{
  "_format": "hh-sol-artifact-1",
  "contractName": "CampaignNFT",
  "sourceName": "contracts/CampaignNFT.sol",
  "abi": [
    {
      "inputs": [
        {
          "internalType": "address",
          "name": "_factoryAddress",
          "type": "address"
        },
        {
          "internalType": "string",
          "name": "baseUri",
          "type": "string"
        },
        {
          "internalType": "address",
          "name": "initialOwner",
          "type": "address"
        }
      ],
      "stateMutability": "nonpayable",
      "type": "constructor"
    },
    {
      "anonymous": false,
      "inputs": [
        {
          "indexed": true,
          "internalType": "address",
          "name": "owner",
          "type": "address"
        },
        {
          "indexed": true,
          "internalType": "address",
          "name": "approved",
          "type": "address"
        },
        {
          "indexed": true,
          "internalType": "uint256",
          "name": "tokenId",
          "type": "uint256"
        }
      ],
      "name": "Approval",
      "type": "event"
    },
    {
      "anonymous": false,
      "inputs": [
        {
          "indexed": true,
          "internalType": "address",
          "name": "owner",
          "type": "address"
        },
        {
          "indexed": true,
          "internalType": "address",
          "name": "operator",
          "type": "address"
        },
        {
          "indexed": false,
          "internalType": "bool",
          "name": "approved",
          "type": "bool"
        }
      ],
      "name": "ApprovalForAll",
      "type": "event"
    },
    {
      "anonymous": false,
      "inputs": [
        {
          "indexed": true,
          "internalType": "uint256",
          "name": "tokenId",
          "type": "uint256"
        },
        {
          "indexed": true,
          "internalType": "address",
          "name": "donor",
          "type": "address"
        },
        {
          "indexed": true,
          "internalType": "address",
          "name": "campaign",
          "type": "address"
        }
      ],
      "name": "NFTMinted",
      "type": "event"
    },
    {
      "anonymous": false,
      "inputs": [
        {
          "indexed": true,
          "internalType": "address",
          "name": "previousOwner",
          "type": "address"
        },
        {
          "indexed": true,
          "internalType": "address",
          "name": "newOwner",
          "type": "address"
        }
      ],
      "name": "OwnershipTransferred",
      "type": "event"
    },
    {
      "anonymous": false,
      "inputs": [
        {
          "indexed": true,
          "internalType": "address",
          "name": "from",
          "type": "address"
        },
        {
          "indexed": true,
          "internalType": "address",
          "name": "to",
          "type": "address"
        },
        {
          "indexed": true,
          "internalType": "uint256",
          "name": "tokenId",
          "type": "uint256"
        }
      ],
      "name": "Transfer",
      "type": "event"
    },
    {
      "inputs": [
        {
          "internalType": "address",
          "name": "to",
          "type": "address"
        },
        {
          "internalType": "uint256",
          "name": "tokenId",
          "type": "uint256"
        }
      ],
      "name": "approve",
      "outputs": [],
      "stateMutability": "nonpayable",
      "type": "function"
    },
    {
      "inputs": [
        {
          "internalType": "address",
          "name": "owner",
          "type": "address"
        }
      ],
      "name": "balanceOf",
      "outputs": [
        {
          "internalType": "uint256",
          "name": "",
          "type": "uint256"
        }
      ],
      "stateMutability": "view",
      "type": "function"
    },
    {
      "inputs": [],
      "name": "campaignFactoryAddress",
      "outputs": [
        {
          "internalType": "address",
          "name": "",
          "type": "address"
        }
      ],
      "stateMutability": "view",
      "type": "function"
    },
    {
      "inputs": [
        {
          "internalType": "uint256",
          "name": "",
          "type": "uint256"
        }
      ],
      "name": "campaignForTokenId",
      "outputs": [
        {
          "internalType": "address",
          "name": "",
          "type": "address"
        }
      ],
      "stateMutability": "view",
      "type": "function"
    },
    {
      "inputs": [
        {
          "internalType": "uint256",
          "name": "tokenId",
          "type": "uint256"
        }
      ],
      "name": "getApproved",
      "outputs": [
        {
          "internalType": "address",
          "name": "",
          "type": "address"
        }
      ],
      "stateMutability": "view",
      "type": "function"
    },
    {
      "inputs": [
        {
          "internalType": "address",
          "name": "owner",
          "type": "address"
        },
        {
          "internalType": "address",
          "name": "operator",
          "type": "address"
        }
      ],
      "name": "isApprovedForAll",
      "outputs": [
        {
          "internalType": "bool",
          "name": "",
          "type": "bool"
        }
      ],
      "stateMutability": "view",
      "type": "function"
    },
    {
      "inputs": [
        {
          "internalType": "address",
          "name": "_donor",
          "type": "address"
        },
        {
          "internalType": "address",
          "name": "_campaignAddress",
          "type": "address"
        }
      ],
      "name": "mint",
      "outputs": [
        {
          "internalType": "uint256",
          "name": "",
          "type": "uint256"
        }
      ],
      "stateMutability": "nonpayable",
      "type": "function"
    },
    {
      "inputs": [],
      "name": "name",
      "outputs": [
        {
          "internalType": "string",
          "name": "",
          "type": "string"
        }
      ],
      "stateMutability": "view",
      "type": "function"
    },
    {
      "inputs": [],
      "name": "owner",
      "outputs": [
        {
          "internalType": "address",
          "name": "",
          "type": "address"
        }
      ],
      "stateMutability": "view",
      "type": "function"
    },
    {
      "inputs": [
        {
          "internalType": "uint256",
          "name": "tokenId",
          "type": "uint256"
        }
      ],
      "name": "ownerOf",
      "outputs": [
        {
          "internalType": "address",
          "name": "",
          "type": "address"
        }
      ],
      "stateMutability": "view",
      "type": "function"
    },
    {
      "inputs": [
        {
          "internalType": "address",
          "name": "from",
          "type": "address"
        },
        {
          "internalType": "address",
          "name": "to",
          "type": "address"
        },
        {
          "internalType": "uint256",
          "name": "tokenId",
          "type": "uint256"
        }
      ],
      "name": "safeTransferFrom",
      "outputs": [],
      "stateMutability": "nonpayable",
      "type": "function"
    },
    {
      "inputs": [
        {
          "internalType": "address",
          "name": "from",
          "type": "address"
        },
        {
          "internalType": "address",
          "name": "to",
          "type": "address"
        },
        {
          "internalType": "uint256",
          "name": "tokenId",
          "type": "uint256"
        },
        {
          "internalType": "bytes",
          "name": "data",
          "type": "bytes"
        }
      ],
      "name": "safeTransferFrom",
      "outputs": [],
      "stateMutability": "nonpayable",
      "type": "function"
    },
    {
      "inputs": [
        {
          "internalType": "address",
          "name": "operator",
          "type": "address"
        },
        {
          "internalType": "bool",
          "name": "approved",
          "type": "bool"
        }
      ],
      "name": "setApprovalForAll",
      "outputs": [],
      "stateMutability": "nonpayable",
      "type": "function"
    },
    {
      "inputs": [
        {
          "internalType": "string",
          "name": "newBaseURI",
          "type": "string"
        }
      ],
      "name": "setBaseURI",
      "outputs": [],
      "stateMutability": "nonpayable",
      "type": "function"
    },
    {
      "inputs": [
        {
          "internalType": "bytes4",
          "name": "interfaceId",
          "type": "bytes4"
        }
      ],
      "name": "supportsInterface",
      "outputs": [
        {
          "internalType": "bool",
          "name": "",
          "type": "bool"
        }
      ],
      "stateMutability": "view",
      "type": "function"
    },
    {
      "inputs": [],
      "name": "symbol",
      "outputs": [
        {
          "internalType": "string",
          "name": "",
          "type": "string"
        }
      ],
      "stateMutability": "view",
      "type": "function"
    },
    {
      "inputs": [
        {
          "internalType": "uint256",
          "name": "tokenId",
          "type": "uint256"
        }
      ],
      "name": "tokenURI",
      "outputs": [
        {
          "internalType": "string",
          "name": "",
          "type": "string"
        }
      ],
      "stateMutability": "view",
      "type": "function"
    },
    {
      "inputs": [
        {
          "internalType": "address",
          "name": "from",
          "type": "address"
        },
        {
          "internalType": "address",
          "name": "to",
          "type": "address"
        },
        {
          "internalType": "uint256",
          "name": "tokenId",
          "type": "uint256"
        }
      ],
      "name": "transferFrom",
      "outputs": [],
      "stateMutability": "nonpayable",
      "type": "function"
    },
    {
      "inputs": [
        {
          "internalType": "address",
          "name": "newOwner",
          "type": "address"
        }
      ],
      "name": "transferOwnership",
      "outputs": [],
      "stateMutability": "nonpayable",
      "type": "function"
    },
    {
      "inputs": [
        {
          "internalType": "address",
          "name": "_newFactoryAddress",
          "type": "address"
        }
      ],
      "name": "updateFactoryAddress",
      "outputs": [],
      "stateMutability": "nonpayable",
      "type": "function"
    }
  ],
  "bytecode": "0x60806040523480156200001157600080fd5b5060405162001f5a38038062001f5a8339810160408190526200003491620001e2565b806040518060400160405280601381526020017f43616d706169676e446f6e6174696f6e4e4654000000000000000000000000008152506040518060400160405280600581526020016410d113919560da1b81525081600090816200009a91906200036c565b506001620000a982826200036c565b50620000ce9150506001600160a01b038216620000c757336200015d565b816200015d565b506001600160a01b0383166200012a5760405162461bcd60e51b815260206004820152601760248201527f496e76616c696420666163746f72792061646472657373000000000000000000604482015260640160405180910390fd5b600980546001600160a01b0319166001600160a01b038516179055600b6200015383826200036c565b5050505062000438565b600780546001600160a01b038381166001600160a01b0319831681179093556040519116919082907f8be0079c531659141344cd1fd0a4f28419497f9722a3daafe3b4186f6b6457e090600090a35050565b80516001600160a01b0381168114620001c757600080fd5b919050565b634e487b7160e01b600052604160045260246000fd5b600080600060608486031215620001f857600080fd5b6200020384620001af565b602085810151919450906001600160401b03808211156200022357600080fd5b818701915087601f8301126200023857600080fd5b8151818111156200024d576200024d620001cc565b604051601f8201601f19908116603f01168101908382118183101715620002785762000278620001cc565b816040528281528a868487010111156200029157600080fd5b600093505b82841015620002b5578484018601518185018701529285019262000296565b6000868483010152809750505050505050620002d460408501620001af565b90509250925092565b600181811c90821680620002f257607f821691505b6020821081036200031357634e487b7160e01b600052602260045260246000fd5b50919050565b601f8211156200036757600081815260208120601f850160051c81016020861015620003425750805b601f850160051c820191505b8181101562000363578281556001016200034e565b5050505b505050565b81516001600160401b03811115620003885762000388620001cc565b620003a081620003998454620002dd565b8462000319565b602080601f831160018114620003d85760008415620003bf5750858301515b600019600386901b1c1916600185901b17855562000363565b600085815260208120601f198616915b828110156200040957888601518255948401946001909101908401620003e8565b5085821015620004285787850151600019600388901b60f8161c191681555b5050505050600190811b01905550565b611b1280620004486000396000f3fe608060405234801561001057600080fd5b506004361061012c5760003560e01c80638da5cb5b116100ad578063c76b0afe11610071578063c76b0afe14610280578063c87b56dd146102a9578063e985e9c5146102bc578063ee1fe2ad146102cf578063f2fde38b146102e257600080fd5b80638da5cb5b1461022e57806395d89b411461023f5780639ee9bbee14610247578063a22cb4651461025a578063b88d4fde1461026d57600080fd5b806342842e0e116100f457806342842e0e146101c1578063551ee570146101d457806355f804b3146101e75780636352211e146101fa57806370a082311461020d57600080fd5b806301ffc9a71461013157806306fdde0314610159578063081812fc1461016e578063095ea7b31461019957806323b872dd146101ae575b600080fd5b61014461013f366004611472565b6102f5565b60405190151581526020015b60405180910390f35b610161610306565b60405161015091906114df565b61018161017c3660046114f2565b610398565b6040516001600160a01b039091168152602001610150565b6101ac6101a7366004611527565b610432565b005b6101ac6101bc366004611551565b610547565b6101ac6101cf366004611551565b610578565b6101ac6101e236600461158d565b610593565b6101ac6101f5366004611634565b610644565b6101816102083660046114f2565b61068d565b61022061021b36600461158d565b610704565b604051908152602001610150565b6007546001600160a01b0316610181565b61016161078a565b600954610181906001600160a01b031681565b6101ac61026836600461168b565b610799565b6101ac61027b3660046116c2565b6107a4565b61018161028e3660046114f2565b600a602052600090815260409020546001600160a01b031681565b6101616102b73660046114f2565b6107dc565b6101446102ca36600461173e565b6107e7565b6102206102dd36600461173e565b610815565b6101ac6102f036600461158d565b6109ab565b600061030082610a55565b92915050565b60606000805461031590611771565b80601f016020809104026020016040519081016040528092919081815260200182805461034190611771565b801561038e5780601f106103635761010080835404028352916020019161038e565b820191906000526020600020905b81548152906001019060200180831161037157829003601f168201915b5050505050905090565b6000818152600260205260408120546001600160a01b03166104165760405162461bcd60e51b815260206004820152602c60248201527f4552433732313a20617070726f76656420717565727920666f72206e6f6e657860448201526b34b9ba32b73a103a37b5b2b760a11b60648201526084015b60405180910390fd5b506000908152600460205260409020546001600160a01b031690565b600061043d8261068d565b9050806001600160a01b0316836001600160a01b0316036104aa5760405162461bcd60e51b815260206004820152602160248201527f4552433732313a20617070726f76616c20746f2063757272656e74206f776e656044820152603960f91b606482015260840161040d565b336001600160a01b03821614806104c657506104c681336107e7565b6105385760405162461bcd60e51b815260206004820152603d60248201527f4552433732313a20617070726f76652063616c6c6572206973206e6f7420746f60448201527f6b656e206f776e6572206f7220617070726f76656420666f7220616c6c000000606482015260840161040d565b6105428383610a60565b505050565b6105513382610ace565b61056d5760405162461bcd60e51b815260040161040d906117ab565b610542838383610b2d565b610542838383604051806020016040528060008152506107a4565b336105a66007546001600160a01b031690565b6001600160a01b0316146105cc5760405162461bcd60e51b815260040161040d906117f8565b6001600160a01b0381166106225760405162461bcd60e51b815260206004820152601760248201527f496e76616c696420666163746f72792061646472657373000000000000000000604482015260640161040d565b600980546001600160a01b0319166001600160a01b0392909216919091179055565b336106576007546001600160a01b031690565b6001600160a01b03161461067d5760405162461bcd60e51b815260040161040d906117f8565b600b610689828261187b565b5050565b6000818152600260205260408120546001600160a01b0316806103005760405162461bcd60e51b815260206004820152602960248201527f4552433732313a206f776e657220717565727920666f72206e6f6e657869737460448201526832b73a103a37b5b2b760b91b606482015260840161040d565b60006001600160a01b03821661076e5760405162461bcd60e51b815260206004820152602960248201527f4552433732313a2061646472657373207a65726f206973206e6f7420612076616044820152683634b21037bbb732b960b91b606482015260840161040d565b506001600160a01b031660009081526003602052604090205490565b60606001805461031590611771565b610689338383610c96565b6107ae3383610ace565b6107ca5760405162461bcd60e51b815260040161040d906117ab565b6107d684848484610d64565b50505050565b606061030082610d97565b6001600160a01b03918216600090815260056020908152604080832093909416825291909152205460ff1690565b600954604051639d22151960e01b81523360048201526000916001600160a01b031690639d22151990602401602060405180830381865afa15801561085e573d6000803e3d6000fd5b505050506040513d601f19601f82011682018060405250810190610882919061193b565b6108ce5760405162461bcd60e51b815260206004820152601e60248201527f43616c6c6572206973206e6f7420612076616c69642063616d706169676e0000604482015260640161040d565b6001600160a01b03821633146109265760405162461bcd60e51b815260206004820152601960248201527f43616d706169676e2061646472657373206d69736d6174636800000000000000604482015260640161040d565b600061093160085490565b9050610941600880546001019055565b61094b8482610e92565b6000818152600a602052604080822080546001600160a01b0319166001600160a01b03878116918217909255915191929087169184917f331d023184405eeb32d693804ea42e04df180882b4d7345e4e5f5e8cbaf4c5b391a49392505050565b336109be6007546001600160a01b031690565b6001600160a01b0316146109e45760405162461bcd60e51b815260040161040d906117f8565b6001600160a01b038116610a495760405162461bcd60e51b815260206004820152602660248201527f4f776e61626c653a206e6577206f776e657220697320746865207a65726f206160448201526564647265737360d01b606482015260840161040d565b610a5281610eac565b50565b600061030082610efe565b600081815260046020526040902080546001600160a01b0319166001600160a01b0384169081179091558190610a958261068d565b6001600160a01b03167f8c5be1e5ebec7d5bd14f71427d1e84f3dd0314c0f7b2291e5b200ac8c7c3b92560405160405180910390a45050565b600080610ada8361068d565b9050806001600160a01b0316846001600160a01b03161480610b015750610b0181856107e7565b80610b255750836001600160a01b0316610b1a84610398565b6001600160a01b0316145b949350505050565b826001600160a01b0316610b408261068d565b6001600160a01b031614610ba45760405162461bcd60e51b815260206004820152602560248201527f4552433732313a207472616e736665722066726f6d20696e636f72726563742060448201526437bbb732b960d91b606482015260840161040d565b6001600160a01b038216610c065760405162461bcd60e51b8152602060048201526024808201527f4552433732313a207472616e7366657220746f20746865207a65726f206164646044820152637265737360e01b606482015260840161040d565b600081815260046020908152604080832080546001600160a01b03199081169091556001600160a01b0387811680865260038552838620805460001901905590871680865283862080546001019055868652600290945282852080549092168417909155905184937fddf252ad1be2c89b69c2b068fc378daa952ba7f163c4a11628f55a4df523b3ef91a4505050565b816001600160a01b0316836001600160a01b031603610cf75760405162461bcd60e51b815260206004820152601960248201527f4552433732313a20617070726f766520746f2063616c6c657200000000000000604482015260640161040d565b6001600160a01b03838116600081815260056020908152604080832094871680845294825291829020805460ff191686151590811790915591519182527f17307eab39ab6107e8899845ad3d59bd9653f200f220920489ca2b5937696c31910160405180910390a3505050565b610d6f848484610b2d565b610d7b84848484610f4e565b6107d65760405162461bcd60e51b815260040161040d90611958565b6060610da28261104f565b60008281526006602052604081208054610dbb90611771565b80601f0160208091040260200160405190810160405280929190818152602001828054610de790611771565b8015610e345780601f10610e0957610100808354040283529160200191610e34565b820191906000526020600020905b815481529060010190602001808311610e1757829003601f168201915b505050505090506000610e456110b3565b90508051600003610e57575092915050565b815115610e89578082604051602001610e719291906119aa565b60405160208183030381529060405292505050919050565b610b25846110c2565b61068982826040518060200160405280600081525061119d565b600780546001600160a01b038381166001600160a01b0319831681179093556040519116919082907f8be0079c531659141344cd1fd0a4f28419497f9722a3daafe3b4186f6b6457e090600090a35050565b60006001600160e01b031982166380ac58cd60e01b1480610f2f57506001600160e01b03198216635b5e139f60e01b145b8061030057506301ffc9a760e01b6001600160e01b0319831614610300565b60006001600160a01b0384163b1561104457604051630a85bd0160e11b81526001600160a01b0385169063150b7a0290610f929033908990889088906004016119d9565b6020604051808303816000875af1925050508015610fcd575060408051601f3d908101601f19168201909252610fca91810190611a16565b60015b61102a573d808015610ffb576040519150601f19603f3d011682016040523d82523d6000602084013e611000565b606091505b5080516000036110225760405162461bcd60e51b815260040161040d90611958565b805181602001fd5b6001600160e01b031916630a85bd0160e11b149050610b25565b506001949350505050565b6000818152600260205260409020546001600160a01b0316610a525760405162461bcd60e51b815260206004820152601860248201527f4552433732313a20696e76616c696420746f6b656e2049440000000000000000604482015260640161040d565b6060600b805461031590611771565b6000818152600260205260409020546060906001600160a01b03166111415760405162461bcd60e51b815260206004820152602f60248201527f4552433732314d657461646174613a2055524920717565727920666f72206e6f60448201526e3732bc34b9ba32b73a103a37b5b2b760891b606482015260840161040d565b600061114b6110b3565b9050600081511161116b5760405180602001604052806000815250611196565b80611175846111d0565b6040516020016111869291906119aa565b6040516020818303038152906040525b9392505050565b6111a783836112d1565b6111b46000848484610f4e565b6105425760405162461bcd60e51b815260040161040d90611958565b6060816000036111f75750506040805180820190915260018152600360fc1b602082015290565b8160005b8115611221578061120b81611a49565b915061121a9050600a83611a78565b91506111fb565b60008167ffffffffffffffff81111561123c5761123c6115a8565b6040519080825280601f01601f191660200182016040528015611266576020820181803683370190505b5090505b8415610b255761127b600183611a8c565b9150611288600a86611a9f565b611293906030611ab3565b60f81b8183815181106112a8576112a8611ac6565b60200101906001600160f81b031916908160001a9053506112ca600a86611a78565b945061126a565b6001600160a01b0382166113275760405162461bcd60e51b815260206004820181905260248201527f4552433732313a206d696e7420746f20746865207a65726f2061646472657373604482015260640161040d565b6000818152600260205260409020546001600160a01b03161561138c5760405162461bcd60e51b815260206004820152601c60248201527f4552433732313a20746f6b656e20616c7265616479206d696e74656400000000604482015260640161040d565b6000818152600260205260409020546001600160a01b0316156113f15760405162461bcd60e51b815260206004820152601c60248201527f4552433732313a20746f6b656e20616c7265616479206d696e74656400000000604482015260640161040d565b6001600160a01b038216600081815260036020908152604080832080546001019055848352600290915280822080546001600160a01b0319168417905551839291907fddf252ad1be2c89b69c2b068fc378daa952ba7f163c4a11628f55a4df523b3ef908290a45050565b6001600160e01b031981168114610a5257600080fd5b60006020828403121561148457600080fd5b81356111968161145c565b60005b838110156114aa578181015183820152602001611492565b50506000910152565b600081518084526114cb81602086016020860161148f565b601f01601f19169290920160200192915050565b60208152600061119660208301846114b3565b60006020828403121561150457600080fd5b5035919050565b80356001600160a01b038116811461152257600080fd5b919050565b6000806040838503121561153a57600080fd5b6115438361150b565b946020939093013593505050565b60008060006060848603121561156657600080fd5b61156f8461150b565b925061157d6020850161150b565b9150604084013590509250925092565b60006020828403121561159f57600080fd5b6111968261150b565b634e487b7160e01b600052604160045260246000fd5b600067ffffffffffffffff808411156115d9576115d96115a8565b604051601f8501601f19908116603f01168101908282118183101715611601576116016115a8565b8160405280935085815286868601111561161a57600080fd5b858560208301376000602087830101525050509392505050565b60006020828403121561164657600080fd5b813567ffffffffffffffff81111561165d57600080fd5b8201601f8101841361166e57600080fd5b610b25848235602084016115be565b8015158114610a5257600080fd5b6000806040838503121561169e57600080fd5b6116a78361150b565b915060208301356116b78161167d565b809150509250929050565b600080600080608085870312156116d857600080fd5b6116e18561150b565b93506116ef6020860161150b565b925060408501359150606085013567ffffffffffffffff81111561171257600080fd5b8501601f8101871361172357600080fd5b611732878235602084016115be565b91505092959194509250565b6000806040838503121561175157600080fd5b61175a8361150b565b91506117686020840161150b565b90509250929050565b600181811c9082168061178557607f821691505b6020821081036117a557634e487b7160e01b600052602260045260246000fd5b50919050565b6020808252602d908201527f4552433732313a2063616c6c6572206973206e6f7420746f6b656e206f776e6560408201526c1c881bdc88185c1c1c9bdd9959609a1b606082015260800190565b6020808252818101527f4f776e61626c653a2063616c6c6572206973206e6f7420746865206f776e6572604082015260600190565b601f82111561054257600081815260208120601f850160051c810160208610156118545750805b601f850160051c820191505b8181101561187357828155600101611860565b505050505050565b815167ffffffffffffffff811115611895576118956115a8565b6118a9816118a38454611771565b8461182d565b602080601f8311600181146118de57600084156118c65750858301515b600019600386901b1c1916600185901b178555611873565b600085815260208120601f198616915b8281101561190d578886015182559484019460019091019084016118ee565b508582101561192b5787850151600019600388901b60f8161c191681555b5050505050600190811b01905550565b60006020828403121561194d57600080fd5b81516111968161167d565b60208082526032908201527f4552433732313a207472616e7366657220746f206e6f6e20455243373231526560408201527131b2b4bb32b91034b6b83632b6b2b73a32b960711b606082015260800190565b600083516119bc81846020880161148f565b8351908301906119d081836020880161148f565b01949350505050565b6001600160a01b0385811682528416602082015260408101839052608060608201819052600090611a0c908301846114b3565b9695505050505050565b600060208284031215611a2857600080fd5b81516111968161145c565b634e487b7160e01b600052601160045260246000fd5b600060018201611a5b57611a5b611a33565b5060010190565b634e487b7160e01b600052601260045260246000fd5b600082611a8757611a87611a62565b500490565b8181038181111561030057610300611a33565b600082611aae57611aae611a62565b500690565b8082018082111561030057610300611a33565b634e487b7160e01b600052603260045260246000fdfea264697066735822122095cc81935342b524cf1c71b37a766d153647decc0967dfbf96ce4c2f9875076864736f6c63430008140033",
  "linkReferences": {},
  "deployedLinkReferences": {}
}