{
  "_format": "hh-sol-artifact-1",
  "contractName": "Campaign",
  "sourceName": "contracts/Campaign.sol",
  "abi": [
    {
      "inputs": [
        {
          "internalType": "address",
          "name": "_creator",
          "type": "address"
        },
        {
          "internalType": "uint256",
          "name": "_goal",
          "type": "uint256"
        },
        {
          "internalType": "address",
          "name": "_token",
          "type": "address"
        },
        {
          "internalType": "address",
          "name": "_nftContract",
          "type": "address"
        },
        {
          "internalType": "string",
          "name": "_uri",
          "type": "string"
        }
      ],
      "stateMutability": "nonpayable",
      "type": "constructor"
    },
    {
      "anonymous": false,
      "inputs": [
        {
          "indexed": true,
          "internalType": "address",
          "name": "donor",
          "type": "address"
        },
        {
          "indexed": false,
          "internalType": "uint256",
          "name": "amount",
          "type": "uint256"
        },
        {
          "indexed": false,
          "internalType": "uint256",
          "name": "newTotalRaised",
          "type": "uint256"
        }
      ],
      "name": "DonationReceived",
      "type": "event"
    },
    {
      "anonymous": false,
      "inputs": [
        {
          "indexed": false,
          "internalType": "bool",
          "name": "isActive",
          "type": "bool"
        }
      ],
      "name": "FundingStatusChanged",
      "type": "event"
    },
    {
      "anonymous": false,
      "inputs": [
        {
          "indexed": true,
          "internalType": "address",
          "name": "creator",
          "type": "address"
        },
        {
          "indexed": false,
          "internalType": "uint256",
          "name": "amountClaimed",
          "type": "uint256"
        }
      ],
      "name": "FundsClaimed",
      "type": "event"
    },
    {
      "inputs": [],
      "name": "acceptedToken",
      "outputs": [
        {
          "internalType": "address",
          "name": "",
          "type": "address"
        }
      ],
      "stateMutability": "view",
      "type": "function"
    },
    {
      "inputs": [],
      "name": "campaignURI",
      "outputs": [
        {
          "internalType": "string",
          "name": "",
          "type": "string"
        }
      ],
      "stateMutability": "view",
      "type": "function"
    },
    {
      "inputs": [],
      "name": "claimFunds",
      "outputs": [],
      "stateMutability": "nonpayable",
      "type": "function"
    },
    {
      "inputs": [],
      "name": "creator",
      "outputs": [
        {
          "internalType": "address",
          "name": "",
          "type": "address"
        }
      ],
      "stateMutability": "view",
      "type": "function"
    },
    {
      "inputs": [
        {
          "internalType": "uint256",
          "name": "_amount",
          "type": "uint256"
        }
      ],
      "name": "donate",
      "outputs": [],
      "stateMutability": "nonpayable",
      "type": "function"
    },
    {
      "inputs": [],
      "name": "fundingActive",
      "outputs": [
        {
          "internalType": "bool",
          "name": "",
          "type": "bool"
        }
      ],
      "stateMutability": "view",
      "type": "function"
    },
    {
      "inputs": [],
      "name": "fundsClaimed",
      "outputs": [
        {
          "internalType": "bool",
          "name": "",
          "type": "bool"
        }
      ],
      "stateMutability": "view",
      "type": "function"
    },
    {
      "inputs": [],
      "name": "goalAmount",
      "outputs": [
        {
          "internalType": "uint256",
          "name": "",
          "type": "uint256"
        }
      ],
      "stateMutability": "view",
      "type": "function"
    },
    {
      "inputs": [],
      "name": "nftContractAddress",
      "outputs": [
        {
          "internalType": "address",
          "name": "",
          "type": "address"
        }
      ],
      "stateMutability": "view",
      "type": "function"
    },
    {
      "inputs": [
        {
          "internalType": "bool",
          "name": "_isActive",
          "type": "bool"
        }
      ],
      "name": "setFundingActive",
      "outputs": [],
      "stateMutability": "nonpayable",
      "type": "function"
    },
    {
      "inputs": [],
      "name": "totalRaised",
      "outputs": [
        {
          "internalType": "uint256",
          "name": "",
          "type": "uint256"
        }
      ],
      "stateMutability": "view",
      "type": "function"
    },
    {
      "inputs": [
        {
          "internalType": "string",
          "name": "_newURI",
          "type": "string"
        }
      ],
      "name": "updateCampaignURI",
      "outputs": [],
      "stateMutability": "nonpayable",
      "type": "function"
    },
    {
      "stateMutability": "payable",
      "type": "receive"
    }
  ],
  "bytecode": "0x6101006040523480156200001257600080fd5b50604051620015b7380380620015b78339810160408190526200003591620001b9565b60016000556001600160a01b038516620000965760405162461bcd60e51b815260206004820152601760248201527f496e76616c69642063726561746f72206164647265737300000000000000000060448201526064015b60405180910390fd5b60008411620000e85760405162461bcd60e51b815260206004820152601e60248201527f476f616c206d7573742062652067726561746572207468616e207a65726f000060448201526064016200008d565b6001600160a01b038216620001405760405162461bcd60e51b815260206004820152601c60248201527f496e76616c6964204e465420636f6e747261637420616464726573730000000060448201526064016200008d565b6001600160a01b0380861660805260a085905283811660c052821660e05260026200016c82826200035f565b50506003805460ff19166001179055506200042b92505050565b80516001600160a01b03811681146200019e57600080fd5b919050565b634e487b7160e01b600052604160045260246000fd5b600080600080600060a08688031215620001d257600080fd5b620001dd8662000186565b94506020808701519450620001f56040880162000186565b9350620002056060880162000186565b60808801519093506001600160401b03808211156200022357600080fd5b818901915089601f8301126200023857600080fd5b8151818111156200024d576200024d620001a3565b604051601f8201601f19908116603f01168101908382118183101715620002785762000278620001a3565b816040528281528c868487010111156200029157600080fd5b600093505b82841015620002b5578484018601518185018701529285019262000296565b60008684830101528096505050505050509295509295909350565b600181811c90821680620002e557607f821691505b6020821081036200030657634e487b7160e01b600052602260045260246000fd5b50919050565b601f8211156200035a57600081815260208120601f850160051c81016020861015620003355750805b601f850160051c820191505b81811015620003565782815560010162000341565b5050505b505050565b81516001600160401b038111156200037b576200037b620001a3565b62000393816200038c8454620002d0565b846200030c565b602080601f831160018114620003cb5760008415620003b25750858301515b600019600386901b1c1916600185901b17855562000356565b600085815260208120601f198616915b82811015620003fc57888601518255948401946001909101908401620003db565b50858210156200041b5787850151600019600388901b60f8161c191681555b5050505050600190811b01905550565b60805160a05160c05160e0516110f8620004bf6000396000818161029e015261037f01526000818160b20152818161022b0152818161065c0152818161075401528181610a6f0152610af00152600081816101bf01526105e501526000818161016e01528181610447015281816105260152818161068c015281816107760152818161079d015261081101526110f86000f3fe6080604052600436106100ab5760003560e01c8063aae282e111610064578063aae282e11461028c578063ac307773146102c0578063af2d1c4a146102d5578063c5c4744c146102f5578063db912e371461030b578063f14faf6f1461032d57600080fd5b806302d05d3f1461015c5780632636b945146101ad5780633152dd00146101ef578063451c3d80146102195780634d695bdb1461024d5780635c6a02461461026d57600080fd5b36610157577f00000000000000000000000000000000000000000000000000000000000000006001600160a01b03161561012c5760405162461bcd60e51b815260206004820152601b60248201527f455448206e6f742061636365707465642c2075736520746f6b656e000000000060448201526064015b60405180910390fd5b6000341161014c5760405162461bcd60e51b815260040161012390610d4f565b6101553461034d565b005b600080fd5b34801561016857600080fd5b506101907f000000000000000000000000000000000000000000000000000000000000000081565b6040516001600160a01b0390911681526020015b60405180910390f35b3480156101b957600080fd5b506101e17f000000000000000000000000000000000000000000000000000000000000000081565b6040519081526020016101a4565b3480156101fb57600080fd5b506003546102099060ff1681565b60405190151581526020016101a4565b34801561022557600080fd5b506101907f000000000000000000000000000000000000000000000000000000000000000081565b34801561025957600080fd5b50610155610268366004610dab565b61043c565b34801561027957600080fd5b5060035461020990610100900460ff1681565b34801561029857600080fd5b506101907f000000000000000000000000000000000000000000000000000000000000000081565b3480156102cc57600080fd5b506101556104c4565b3480156102e157600080fd5b506101556102f0366004610e6d565b610806565b34801561030157600080fd5b506101e160015481565b34801561031757600080fd5b5061032061091d565b6040516101a49190610eb5565b34801561033957600080fd5b50610155610348366004610ee8565b6109ab565b806001600082825461035f9190610f01565b909155505060405163ee1fe2ad60e01b81523360048201523060248201527f00000000000000000000000000000000000000000000000000000000000000006001600160a01b03169063ee1fe2ad906044016020604051808303816000875af11580156103d0573d6000803e3d6000fd5b505050506040513d601f19601f820116820180604052508101906103f49190610f28565b5060015460405133917f4b0304ab2f313234b1cea012339c8f8c3bf2c8bb357d81a579cfdb35d2e3d0309161043191858252602082015260400190565b60405180910390a250565b336001600160a01b037f000000000000000000000000000000000000000000000000000000000000000016146104b45760405162461bcd60e51b815260206004820152601b60248201527f4f6e6c792063726561746f722063616e207570646174652055524900000000006044820152606401610123565b60026104c08282610fc9565b5050565b6002600054036105165760405162461bcd60e51b815260206004820152601f60248201527f5265656e7472616e637947756172643a207265656e7472616e742063616c6c006044820152606401610123565b6002600055336001600160a01b037f000000000000000000000000000000000000000000000000000000000000000016146105935760405162461bcd60e51b815260206004820152601c60248201527f4f6e6c792063726561746f722063616e20636c61696d2066756e6473000000006044820152606401610123565b600354610100900460ff16156105e35760405162461bcd60e51b8152602060048201526015602482015274119d5b991cc8185b1c9958591e4818db185a5b5959605a1b6044820152606401610123565b7f000000000000000000000000000000000000000000000000000000000000000060015410156106485760405162461bcd60e51b815260206004820152601060248201526f11dbd85b081b9bdd081c995858da195960821b6044820152606401610123565b6003805461ffff19166101001790556001547f00000000000000000000000000000000000000000000000000000000000000006001600160a01b03166107475760007f00000000000000000000000000000000000000000000000000000000000000006001600160a01b03168260405160006040518083038185875af1925050503d80600081146106f5576040519150601f19603f3d011682016040523d82523d6000602084013e6106fa565b606091505b50509050806107415760405162461bcd60e51b8152602060048201526013602482015272115512081d1c985b9cd9995c8819985a5b1959606a1b6044820152606401610123565b5061079b565b61079b6001600160a01b037f0000000000000000000000000000000000000000000000000000000000000000167f000000000000000000000000000000000000000000000000000000000000000083610b29565b7f00000000000000000000000000000000000000000000000000000000000000006001600160a01b03167fa65a8b4f7f65a1063243d7f7e9e4da00ff767599acf21549ef2548a45d1695ae826040516107f691815260200190565b60405180910390a2506001600055565b336001600160a01b037f0000000000000000000000000000000000000000000000000000000000000000161461087e5760405162461bcd60e51b815260206004820152601e60248201527f4f6e6c792063726561746f722063616e206368616e67652073746174757300006044820152606401610123565b600354610100900460ff16156108d65760405162461bcd60e51b815260206004820152601e60248201527f43616d706169676e2066756e647320616c726561647920636c61696d656400006044820152606401610123565b6003805460ff19168215159081179091556040519081527fe514c523afbc9b3b9a6e3619007455e7f6cf0e13c416079edc6c2f9ed77249c29060200160405180910390a150565b6002805461092a90610f41565b80601f016020809104026020016040519081016040528092919081815260200182805461095690610f41565b80156109a35780601f10610978576101008083540402835291602001916109a3565b820191906000526020600020905b81548152906001019060200180831161098657829003601f168201915b505050505081565b6002600054036109fd5760405162461bcd60e51b815260206004820152601f60248201527f5265656e7472616e637947756172643a207265656e7472616e742063616c6c006044820152606401610123565b600260005560035460ff16610a4d5760405162461bcd60e51b815260206004820152601660248201527543616d706169676e206973206e6f742061637469766560501b6044820152606401610123565b60008111610a6d5760405162461bcd60e51b815260040161012390610d4f565b7f00000000000000000000000000000000000000000000000000000000000000006001600160a01b0316610ae35760405162461bcd60e51b815260206004820152601d60248201527f55736520455448207472616e7366657220666f7220646f6e6174696f6e0000006044820152606401610123565b610b186001600160a01b037f000000000000000000000000000000000000000000000000000000000000000016333084610b91565b610b218161034d565b506001600055565b6040516001600160a01b038316602482015260448101829052610b8c90849063a9059cbb60e01b906064015b60408051601f198184030181529190526020810180516001600160e01b03166001600160e01b031990931692909217909152610bcf565b505050565b6040516001600160a01b0380851660248301528316604482015260648101829052610bc99085906323b872dd60e01b90608401610b55565b50505050565b6001600160a01b0382163b610c265760405162461bcd60e51b815260206004820152601f60248201527f5361666545524332303a2063616c6c20746f206e6f6e2d636f6e7472616374006044820152606401610123565b600080836001600160a01b031683604051610c419190611089565b6000604051808303816000865af19150503d8060008114610c7e576040519150601f19603f3d011682016040523d82523d6000602084013e610c83565b606091505b509150915081610cd55760405162461bcd60e51b815260206004820181905260248201527f5361666545524332303a206c6f772d6c6576656c2063616c6c206661696c65646044820152606401610123565b805115610bc95780806020019051810190610cf091906110a5565b610bc95760405162461bcd60e51b815260206004820152602a60248201527f5361666545524332303a204552433230206f7065726174696f6e20646964206e6044820152691bdd081cdd58d8d9595960b21b6064820152608401610123565b60208082526026908201527f446f6e6174696f6e20616d6f756e74206d75737420626520677265617465722060408201526507468616e20360d41b606082015260800190565b634e487b7160e01b600052604160045260246000fd5b600060208284031215610dbd57600080fd5b813567ffffffffffffffff80821115610dd557600080fd5b818401915084601f830112610de957600080fd5b813581811115610dfb57610dfb610d95565b604051601f8201601f19908116603f01168101908382118183101715610e2357610e23610d95565b81604052828152876020848701011115610e3c57600080fd5b826020860160208301376000928101602001929092525095945050505050565b8015158114610e6a57600080fd5b50565b600060208284031215610e7f57600080fd5b8135610e8a81610e5c565b9392505050565b60005b83811015610eac578181015183820152602001610e94565b50506000910152565b6020815260008251806020840152610ed4816040850160208701610e91565b601f01601f19169190910160400192915050565b600060208284031215610efa57600080fd5b5035919050565b80820180821115610f2257634e487b7160e01b600052601160045260246000fd5b92915050565b600060208284031215610f3a57600080fd5b5051919050565b600181811c90821680610f5557607f821691505b602082108103610f7557634e487b7160e01b600052602260045260246000fd5b50919050565b601f821115610b8c57600081815260208120601f850160051c81016020861015610fa25750805b601f850160051c820191505b81811015610fc157828155600101610fae565b505050505050565b815167ffffffffffffffff811115610fe357610fe3610d95565b610ff781610ff18454610f41565b84610f7b565b602080601f83116001811461102c57600084156110145750858301515b600019600386901b1c1916600185901b178555610fc1565b600085815260208120601f198616915b8281101561105b5788860151825594840194600190910190840161103c565b50858210156110795787850151600019600388901b60f8161c191681555b5050505050600190811b01905550565b6000825161109b818460208701610e91565b9190910192915050565b6000602082840312156110b757600080fd5b8151610e8a81610e5c56fea2646970667358221220a0b7d44b81ff905502c1b3256416aab613224c334cf6b913b1eedb81af3e137164736f6c63430008140033",
  "linkReferences": {},
  "deployedLinkReferences": {}
}